:100AFC0074656D70657261747572653A2000430D92
:020B0C000A00DD
:10080000E4F5C975CA107F0A120AC3C2CCE4F50D1B
:10081000F50E120A951208BF8E0D8F0E7BFF7A0A15
:1008200079FC120A33AE0DAF0E7C277D10120981C0
:10083000EF64014E70057F2D120ABBAE0DAF0E7C2A
:10084000277D101209817E037FE8120AAEAE0DAF3C
:100850000E7C037DE81209817F64120AAC7F2E12A0
:100860000ABBAE0DAF0E7C007D641209817F0A12B7
:100870000AACAE0DAF0E7C007D0A120981ED24306A
:10088000FF120ABB7BFF7A0B790A120A33C3E50E0B
:100890009448E50D940D500AC2CC7F01120AE9027A
:1008A0000815D3E50E94ACE50D940D400AD2CC7F2B
:0F08B00006120AD60208157F0A120AC30208159B
:100A5800E4F50BD2CD120B7DC2CD120B5DD2CD12B7
:0F0A68000B76A2CDE433F50B120B5DE50B24FFEB
:010A7700225C
:1009D600E4F50BF50CF50BD2CD00C2CDE50CC31337
:1009E600F50C00D2CD120B7D30CD05430C80800076
:0E09F600120B6E050BE50BC3940840DBAF0C33
:010A040022CF
:020A05008F0B55
:100A0700E4F50CF50CD2CD00C2CDE50B1392CD1257
:100A17000B76D2CD120B66E50BC313F50B050CE570
:0C0A27000CC3940840DF120B7D020B7D15
:100A7800120A587FCC120A057F44120A05120B4746
:0D0A8800120A587FCC120A057FBE020A0533
:1008BF00E4F508F509F50AFF120A781209D68F0A2E
:1008CF001209D6EFD3947F400D630AFFEFF404FFB4
:1008DF00750800750964EF75F010A42509FFE50888
:1008EF0035F0FEE50AC4540F7C002FF509EC3EF5F8
:1008FF0008FEAF097D6412096F8E088F09E50A544F
:10090F000FFD75F00AA4FFE5F0C4F854F0C8EFC46A
:10091F00540F4875F00AA4AEF02509F509EE350815
:10092F00F508ED75F064A4FFE5F0C4F854F0C8EFD6
:10093F00C4540F4875F00A84E5F02509F509E4352C
:06094F0008F508FEAF09E7
:01095500227F
:070B66000000007F05DFFE27
:010B6D002265
:040B7D007F0EDFFE0A
:010B81002251
:070B6E000000007F3FDFFEE5
:010B7500225D
:060B760000007F50DFFECD
:010B7C002256
:0A0B470000007F047E36DEFEDFFCB6
:010B51002281
:080B5D007F077E71DEFEDFFC64
:010B6500226D
:0E0B0E0000007F037E1A7DDFDDFEDEFCDFFAD5
:010B1C0022B6
:0E0B1D0000007F077E4E7DA7DDFEDEFCDFFAC6
:010B2B0022A7
:0E0B2C0000007F2B7E067DCBDDFEDEFCDFFAB7
:010B3A002298
:100AC300AC07EC600DB2B3120B0EB2B3120B0E1CDB
:030AD30080F0228E
:100AD600AC07EC600DB2B3120B1DB2B3120B1D1CAA
:030AE60080F0227B
:100AE900AC07EC600DB2B3120B2CB2B3120B2C1C79
:030AF90080F02268
:100A9500759850438E01538EFB75D7E875D6FF4385
:070AA5008E10D2ACD2AF228B
:0F0AAC007E00CFCDCFCECCCE120981EF2430FF0C
:080ABB008F993099FDC29922C8
:100A33008B088A09890AAB08AA09A90A1209566010
:100A430013050AE50A7002050914F9120956FF1283
:050A53000ABB80E22255
:03002300020B527B
:0B0B5200309802C299309902C299321B
:03000000020B3BB5
:0C0B3B00787FE4F6D8FD75810E020800FA
:10095600BB010689828A83E0225002E722BBFE029F
:09096600E32289828A83E49322D2
:10096F00EF8DF0A4A8F0CF8CF0A428CE8DF0A42E9C
:02097F00FE2256
:10098100BC000BBE0029EF8DF084FFADF022E4CC5A
:10099100F875F008EF2FFFEE33FEEC33FCEE9DEC23
:1009A100984005FCEE9DFE0FD5F0E9E4CEFD22ED69
:1009B100F8F5F0EE8420D21CFEADF075F008EF2FB3
:1009C100FFED33FD4007985006D5F0F222C398FDA4
:0509D1000FD5F0EA2241
:00000001FF
